{
	"contracts/ether.sol": {
		"EtherUnits": {
			"abi": [
				{
					"inputs": [],
					"name": "apakahSatuEther",
					"outputs": [
						{
							"internalType": "bool",
							"name": "",
							"type": "bool"
						}
					],
					"stateMutability": "view",
					"type": "function"
				},
				{
					"inputs": [],
					"name": "apakahSatuWei",
					"outputs": [
						{
							"internalType": "bool",
							"name": "",
							"type": "bool"
						}
					],
					"stateMutability": "view",
					"type": "function"
				},
				{
					"inputs": [],
					"name": "satuEther",
					"outputs": [
						{
							"internalType": "uint256",
							"name": "",
							"type": "uint256"
						}
					],
					"stateMutability": "view",
					"type": "function"
				},
				{
					"inputs": [],
					"name": "satuWei",
					"outputs": [
						{
							"internalType": "uint256",
							"name": "",
							"type": "uint256"
						}
					],
					"stateMutability": "view",
					"type": "function"
				}
			],
			"devdoc": {
				"kind": "dev",
				"methods": {},
				"version": 1
			},
			"evm": {
				"assembly": "    /* \"contracts/ether.sol\":58:311  contract EtherUnits {... */\n  mstore(0x40, 0x80)\n    /* \"contracts/ether.sol\":106:111  1 wei */\n  0x01\n    /* \"contracts/ether.sol\":84:111  uint public satuWei = 1 wei */\n  0x00\n  sstore\n    /* \"contracts/ether.sol\":181:182  1 */\n  0x01\n    /* \"contracts/ether.sol\":172:177  1 wei */\n  dup1\n    /* \"contracts/ether.sol\":172:182  1 wei == 1 */\n  eq\n    /* \"contracts/ether.sol\":144:182  bool public apakahSatuWei = 1 wei == 1 */\n  0x01\n  exp(0x0100, 0x00)\n  dup2\n  sload\n  dup2\n  0xff\n  mul\n  not\n  and\n  swap1\n  dup4\n  iszero\n  iszero\n  mul\n  or\n  swap1\n  sstore\n  pop\n    /* \"contracts/ether.sol\":213:220  1 ether */\n  0x0de0b6b3a7640000\n    /* \"contracts/ether.sol\":189:220  uint public satuEther = 1 ether */\n  0x02\n  sstore\n    /* \"contracts/ether.sol\":304:308  1e18 */\n  0x0de0b6b3a7640000\n    /* \"contracts/ether.sol\":293:300  1 ether */\n  dup1\n    /* \"contracts/ether.sol\":293:308  1 ether == 1e18 */\n  eq\n    /* \"contracts/ether.sol\":263:308  bool public apakahSatuEther = 1 ether == 1e18 */\n  0x03\n  exp(0x0100, 0x00)\n  dup2\n  sload\n  dup2\n  0xff\n  mul\n  not\n  and\n  swap1\n  dup4\n  iszero\n  iszero\n  mul\n  or\n  swap1\n  sstore\n  pop\n    /* \"contracts/ether.sol\":58:311  contract EtherUnits {... */\n  callvalue\n  dup1\n  iszero\n  tag_1\n  jumpi\n  0x00\n  dup1\n  revert\ntag_1:\n  pop\n  dataSize(sub_0)\n  dup1\n  dataOffset(sub_0)\n  0x00\n  codecopy\n  0x00\n  return\nstop\n\nsub_0: assembly {\n        /* \"contracts/ether.sol\":58:311  contract EtherUnits {... */\n      mstore(0x40, 0x80)\n      callvalue\n      dup1\n      iszero\n      tag_1\n      jumpi\n      0x00\n      dup1\n      revert\n    tag_1:\n      pop\n      jumpi(tag_2, lt(calldatasize, 0x04))\n      shr(0xe0, calldataload(0x00))\n      dup1\n      0x20094b85\n      eq\n      tag_3\n      jumpi\n      dup1\n      0x6192d3f2\n      eq\n      tag_4\n      jumpi\n      dup1\n      0x92b42a9c\n      eq\n      tag_5\n      jumpi\n      dup1\n      0xce7b9116\n      eq\n      tag_6\n      jumpi\n    tag_2:\n      0x00\n      dup1\n      revert\n        /* \"contracts/ether.sol\":144:182  bool public apakahSatuWei = 1 wei == 1 */\n    tag_3:\n      tag_7\n      tag_8\n      jump\t// in\n    tag_7:\n      mload(0x40)\n      tag_9\n      swap2\n      swap1\n      tag_10\n      jump\t// in\n    tag_9:\n      mload(0x40)\n      dup1\n      swap2\n      sub\n      swap1\n      return\n        /* \"contracts/ether.sol\":189:220  uint public satuEther = 1 ether */\n    tag_4:\n      tag_11\n      tag_12\n      jump\t// in\n    tag_11:\n      mload(0x40)\n      tag_13\n      swap2\n      swap1\n      tag_14\n      jump\t// in\n    tag_13:\n      mload(0x40)\n      dup1\n      swap2\n      sub\n      swap1\n      return\n        /* \"contracts/ether.sol\":84:111  uint public satuWei = 1 wei */\n    tag_5:\n      tag_15\n      tag_16\n      jump\t// in\n    tag_15:\n      mload(0x40)\n      tag_17\n      swap2\n      swap1\n      tag_14\n      jump\t// in\n    tag_17:\n      mload(0x40)\n      dup1\n      swap2\n      sub\n      swap1\n      return\n        /* \"contracts/ether.sol\":263:308  bool public apakahSatuEther = 1 ether == 1e18 */\n    tag_6:\n      tag_18\n      tag_19\n      jump\t// in\n    tag_18:\n      mload(0x40)\n      tag_20\n      swap2\n      swap1\n      tag_10\n      jump\t// in\n    tag_20:\n      mload(0x40)\n      dup1\n      swap2\n      sub\n      swap1\n      return\n        /* \"contracts/ether.sol\":144:182  bool public apakahSatuWei = 1 wei == 1 */\n    tag_8:\n      0x01\n      0x00\n      swap1\n      sload\n      swap1\n      0x0100\n      exp\n      swap1\n      div\n      0xff\n      and\n      dup2\n      jump\t// out\n        /* \"contracts/ether.sol\":189:220  uint public satuEther = 1 ether */\n    tag_12:\n      sload(0x02)\n      dup2\n      jump\t// out\n        /* \"contracts/ether.sol\":84:111  uint public satuWei = 1 wei */\n    tag_16:\n      sload(0x00)\n      dup2\n      jump\t// out\n        /* \"contracts/ether.sol\":263:308  bool public apakahSatuEther = 1 ether == 1e18 */\n    tag_19:\n      0x03\n      0x00\n      swap1\n      sload\n      swap1\n      0x0100\n      exp\n      swap1\n      div\n      0xff\n      and\n      dup2\n      jump\t// out\n        /* \"#utility.yul\":7:97   */\n    tag_21:\n        /* \"#utility.yul\":41:48   */\n      0x00\n        /* \"#utility.yul\":84:89   */\n      dup2\n        /* \"#utility.yul\":77:90   */\n      iszero\n        /* \"#utility.yul\":70:91   */\n      iszero\n        /* \"#utility.yul\":59:91   */\n      swap1\n      pop\n        /* \"#utility.yul\":7:97   */\n      swap2\n      swap1\n      pop\n      jump\t// out\n        /* \"#utility.yul\":103:212   */\n    tag_22:\n        /* \"#utility.yul\":184:205   */\n      tag_28\n        /* \"#utility.yul\":199:204   */\n      dup2\n        /* \"#utility.yul\":184:205   */\n      tag_21\n      jump\t// in\n    tag_28:\n        /* \"#utility.yul\":179:182   */\n      dup3\n        /* \"#utility.yul\":172:206   */\n      mstore\n        /* \"#utility.yul\":103:212   */\n      pop\n      pop\n      jump\t// out\n        /* \"#utility.yul\":218:428   */\n    tag_10:\n        /* \"#utility.yul\":305:309   */\n      0x00\n        /* \"#utility.yul\":343:345   */\n      0x20\n        /* \"#utility.yul\":332:341   */\n      dup3\n        /* \"#utility.yul\":328:346   */\n      add\n        /* \"#utility.yul\":320:346   */\n      swap1\n      pop\n        /* \"#utility.yul\":356:421   */\n      tag_30\n        /* \"#utility.yul\":418:419   */\n      0x00\n        /* \"#utility.yul\":407:416   */\n      dup4\n        /* \"#utility.yul\":403:420   */\n      add\n        /* \"#utility.yul\":394:400   */\n      dup5\n        /* \"#utility.yul\":356:421   */\n      tag_22\n      jump\t// in\n    tag_30:\n        /* \"#utility.yul\":218:428   */\n      swap3\n      swap2\n      pop\n      pop\n      jump\t// out\n        /* \"#utility.yul\":434:511   */\n    tag_23:\n        /* \"#utility.yul\":471:478   */\n      0x00\n        /* \"#utility.yul\":500:505   */\n      dup2\n        /* \"#utility.yul\":489:505   */\n      swap1\n      pop\n        /* \"#utility.yul\":434:511   */\n      swap2\n      swap1\n      pop\n      jump\t// out\n        /* \"#utility.yul\":517:635   */\n    tag_24:\n        /* \"#utility.yul\":604:628   */\n      tag_33\n        /* \"#utility.yul\":622:627   */\n      dup2\n        /* \"#utility.yul\":604:628   */\n      tag_23\n      jump\t// in\n    tag_33:\n        /* \"#utility.yul\":599:602   */\n      dup3\n        /* \"#utility.yul\":592:629   */\n      mstore\n        /* \"#utility.yul\":517:635   */\n      pop\n      pop\n      jump\t// out\n        /* \"#utility.yul\":641:863   */\n    tag_14:\n        /* \"#utility.yul\":734:738   */\n      0x00\n        /* \"#utility.yul\":772:774   */\n      0x20\n        /* \"#utility.yul\":761:770   */\n      dup3\n        /* \"#utility.yul\":757:775   */\n      add\n        /* \"#utility.yul\":749:775   */\n      swap1\n      pop\n        /* \"#utility.yul\":785:856   */\n      tag_35\n        /* \"#utility.yul\":853:854   */\n      0x00\n        /* \"#utility.yul\":842:851   */\n      dup4\n        /* \"#utility.yul\":838:855   */\n      add\n        /* \"#utility.yul\":829:835   */\n      dup5\n        /* \"#utility.yul\":785:856   */\n      tag_24\n      jump\t// in\n    tag_35:\n        /* \"#utility.yul\":641:863   */\n      swap3\n      swap2\n      pop\n      pop\n      jump\t// out\n\n    auxdata: 0xa2646970667358221220f1a7254c9637f06820e1087989c1e440663dad99f2a1299a51130bafb37fb98d64736f6c63430008110033\n}\n",
				"bytecode": {
					"linkReferences": {},
					"object": "6080604052600160005560018014600160006101000a81548160ff021916908315150217905550670de0b6b3a7640000600255670de0b6b3a76400008014600360006101000a81548160ff02191690831515021790555034801561006257600080fd5b5061019b806100726000396000f3fe608060405234801561001057600080fd5b506004361061004c5760003560e01c806320094b85146100515780636192d3f21461006f57806392b42a9c1461008d578063ce7b9116146100ab575b600080fd5b6100596100c9565b6040516100669190610116565b60405180910390f35b6100776100dc565b604051610084919061014a565b60405180910390f35b6100956100e2565b6040516100a2919061014a565b60405180910390f35b6100b36100e8565b6040516100c09190610116565b60405180910390f35b600160009054906101000a900460ff1681565b60025481565b60005481565b600360009054906101000a900460ff1681565b60008115159050919050565b610110816100fb565b82525050565b600060208201905061012b6000830184610107565b92915050565b6000819050919050565b61014481610131565b82525050565b600060208201905061015f600083018461013b565b9291505056fea2646970667358221220f1a7254c9637f06820e1087989c1e440663dad99f2a1299a51130bafb37fb98d64736f6c63430008110033",
					"opcodes": "PUSH1 0x80 PUSH1 0x40 MSTORE PUSH1 0x1 PUSH1 0x0 SSTORE PUSH1 0x1 DUP1 EQ PUSH1 0x1 PUSH1 0x0 PUSH2 0x100 EXP DUP2 SLOAD DUP2 PUSH1 0xFF MUL NOT AND SWAP1 DUP4 ISZERO ISZERO MUL OR SWAP1 SSTORE POP PUSH8 0xDE0B6B3A7640000 PUSH1 0x2 SSTORE PUSH8 0xDE0B6B3A7640000 DUP1 EQ PUSH1 0x3 PUSH1 0x0 PUSH2 0x100 EXP DUP2 SLOAD DUP2 PUSH1 0xFF MUL NOT AND SWAP1 DUP4 ISZERO ISZERO MUL OR SWAP1 SSTORE POP CALLVALUE DUP1 ISZERO PUSH2 0x62 JUMPI PUSH1 0x0 DUP1 REVERT JUMPDEST POP PUSH2 0x19B DUP1 PUSH2 0x72 PUSH1 0x0 CODECOPY PUSH1 0x0 RETURN INVALID PUSH1 0x80 PUSH1 0x40 MSTORE CALLVALUE DUP1 ISZERO PUSH2 0x10 JUMPI PUSH1 0x0 DUP1 REVERT JUMPDEST POP PUSH1 0x4 CALLDATASIZE LT PUSH2 0x4C JUMPI PUSH1 0x0 CALLDATALOAD PUSH1 0xE0 SHR DUP1 PUSH4 0x20094B85 EQ PUSH2 0x51 JUMPI DUP1 PUSH4 0x6192D3F2 EQ PUSH2 0x6F JUMPI DUP1 PUSH4 0x92B42A9C EQ PUSH2 0x8D JUMPI DUP1 PUSH4 0xCE7B9116 EQ PUSH2 0xAB JUMPI JUMPDEST PUSH1 0x0 DUP1 REVERT JUMPDEST PUSH2 0x59 PUSH2 0xC9 JUMP JUMPDEST PUSH1 0x40 MLOAD PUSH2 0x66 SWAP2 SWAP1 PUSH2 0x116 JUMP JUMPDEST PUSH1 0x40 MLOAD DUP1 SWAP2 SUB SWAP1 RETURN JUMPDEST PUSH2 0x77 PUSH2 0xDC JUMP JUMPDEST PUSH1 0x40 MLOAD PUSH2 0x84 SWAP2 SWAP1 PUSH2 0x14A JUMP JUMPDEST PUSH1 0x40 MLOAD DUP1 SWAP2 SUB SWAP1 RETURN JUMPDEST PUSH2 0x95 PUSH2 0xE2 JUMP JUMPDEST PUSH1 0x40 MLOAD PUSH2 0xA2 SWAP2 SWAP1 PUSH2 0x14A JUMP JUMPDEST PUSH1 0x40 MLOAD DUP1 SWAP2 SUB SWAP1 RETURN JUMPDEST PUSH2 0xB3 PUSH2 0xE8 JUMP JUMPDEST PUSH1 0x40 MLOAD PUSH2 0xC0 SWAP2 SWAP1 PUSH2 0x116 JUMP JUMPDEST PUSH1 0x40 MLOAD DUP1 SWAP2 SUB SWAP1 RETURN JUMPDEST PUSH1 0x1 PUSH1 0x0 SWAP1 SLOAD SWAP1 PUSH2 0x100 EXP SWAP1 DIV PUSH1 0xFF AND DUP2 JUMP JUMPDEST PUSH1 0x2 SLOAD DUP2 JUMP JUMPDEST PUSH1 0x0 SLOAD DUP2 JUMP JUMPDEST PUSH1 0x3 PUSH1 0x0 SWAP1 SLOAD SWAP1 PUSH2 0x100 EXP SWAP1 DIV PUSH1 0xFF AND DUP2 JUMP JUMPDEST PUSH1 0x0 DUP2 ISZERO ISZERO SWAP1 POP SWAP2 SWAP1 POP JUMP JUMPDEST PUSH2 0x110 DUP2 PUSH2 0xFB JUMP JUMPDEST DUP3 MSTORE POP POP JUMP JUMPDEST PUSH1 0x0 PUSH1 0x20 DUP3 ADD SWAP1 POP PUSH2 0x12B PUSH1 0x0 DUP4 ADD DUP5 PUSH2 0x107 JUMP JUMPDEST SWAP3 SWAP2 POP POP JUMP JUMPDEST PUSH1 0x0 DUP2 SWAP1 POP SWAP2 SWAP1 POP JUMP JUMPDEST PUSH2 0x144 DUP2 PUSH2 0x131 JUMP JUMPDEST DUP3 MSTORE POP POP JUMP JUMPDEST PUSH1 0x0 PUSH1 0x20 DUP3 ADD SWAP1 POP PUSH2 0x15F PUSH1 0x0 DUP4 ADD DUP5 PUSH2 0x13B JUMP JUMPDEST SWAP3 SWAP2 POP POP JUMP INVALID LOG2 PUSH5 0x6970667358 0x22 SLT KECCAK256 CALL 0xA7 0x25 0x4C SWAP7 CALLDATACOPY CREATE PUSH9 0x20E1087989C1E44066 RETURNDATASIZE 0xAD SWAP10 CALLCODE LOG1 0x29 SWAP11 MLOAD SGT SIGNEXTEND 0xAF 0xB3 PUSH32 0xB98D64736F6C6343000811003300000000000000000000000000000000000000 "
				},
				"gasEstimates": {
					"creation": {
						"codeDepositCost": "82200",
						"executionCost": "92887",
						"totalCost": "175087"
					},
					"external": {
						"apakahSatuEther()": "2515",
						"apakahSatuWei()": "2449",
						"satuEther()": "2429",
						"satuWei()": "2451"
					}
				},
				"methodIdentifiers": {
					"apakahSatuEther()": "ce7b9116",
					"apakahSatuWei()": "20094b85",
					"satuEther()": "6192d3f2",
					"satuWei()": "92b42a9c"
				}
			},
			"storageLayout": {
				"storage": [
					{
						"astId": 4,
						"contract": "contracts/ether.sol:EtherUnits",
						"label": "satuWei",
						"offset": 0,
						"slot": "0",
						"type": "t_uint256"
					},
					{
						"astId": 9,
						"contract": "contracts/ether.sol:EtherUnits",
						"label": "apakahSatuWei",
						"offset": 0,
						"slot": "1",
						"type": "t_bool"
					},
					{
						"astId": 12,
						"contract": "contracts/ether.sol:EtherUnits",
						"label": "satuEther",
						"offset": 0,
						"slot": "2",
						"type": "t_uint256"
					},
					{
						"astId": 17,
						"contract": "contracts/ether.sol:EtherUnits",
						"label": "apakahSatuEther",
						"offset": 0,
						"slot": "3",
						"type": "t_bool"
					}
				],
				"types": {
					"t_bool": {
						"encoding": "inplace",
						"label": "bool",
						"numberOfBytes": "1"
					},
					"t_uint256": {
						"encoding": "inplace",
						"label": "uint256",
						"numberOfBytes": "32"
					}
				}
			},
			"userdoc": {
				"kind": "user",
				"methods": {},
				"version": 1
			}
		}
	}
}